:0400000074EF1DF08C
:10080000002A207061726120636F6E6669726D618B
:1008100072005374617475733A204F4646005465F4
:100820006D703A00252E326600494E46004E414E0C
:1008300000696E66006E616E00202020004F4E2021
:0908400000206F43006C6600000B
:10084A00000E00017A6F000E796F57C08BF058C006
:10085A008CF059C08DF05AC08EF08EBF39EF04F07B
:10086A0037EF04F04FEF04F0000E7A6F010E796F44
:10087A008BC001F08CC002F08DC003F08EC004F072
:10088A0032EC1FF001C08BF002C08CF003C08DF077
:10089A0004C08EF0000E0001926F000E916FE3C04B
:1008AA007DF0E4C07EF079517A11D8A45FEF04F0AC
:1008BA0061EF04F068EF04F0E7A566EF04F068EF73
:1008CA0004F082EF04F079517A11D8A46FEF04F0A2
:1008DA0071EF04F077EF04F0000E666F2B0E656F70
:1008EA007BEF04F0000E666F2D0E656F65C000F198
:1008FA00914B922B7D07D8A07E078BC001F08CC04C
:10090A0002F08DC003F08EC004F0BFEC19F00104B0
:10091A000210D8A493EF04F095EF04F0DFEF04F08F
:10092A00BF0E0001606FFF0E616F5B50626F636BF9
:10093A006051622761516323635107E11A0E625DB8
:10094A00D8B0AAEF04F0ACEF04F0BAEF04F0000E4E
:10095A009125056E010E9221066E290E076E080E6C
:10096A00086ED6EC1DF0C6EF04F0000E9125056E58
:10097A00010E9221066E310E076E080E086ED6EC35
:10098A001DF00001FD0E7D27FF0E7E2355C011F0DC
:10099A0056C012F0000E136E010E146E7DC015F0D3
:1009AA007EC016F085EC1BF011C055F012C056F04F
:1009BA0029EF0AF08BC001F08CC002F08DC003F061
:1009CA008EC004F0BFEC19F001500210D8A4F0EF69
:1009DA0004F0F2EF04F025EF05F0BF0E0001606F9E
:1009EA00FF0E616F5B50626F636B605162276151EA
:1009FA006323635107E11A0E625DD8B007EF05F071
:100A0A0009EF05F017EF05F0000E9125056E010EAE
:100A1A009221066E2D0E076E080E086ED6EC1DF09A
:100A2A00C6EF04F0000E9125056E010E9221066EA6
:100A3A00350E076E080E086ED6EC1DF0C6EF04F0F0
:100A4A00000E0001936F000E946F800E956F3F0E9B
:100A5A00966F000E906F000E8F6F8BC001F08CC0E6
:100A6A0002F08DC003F08EC004F0000E056E000E79
:100A7A00066E000E076E000E086EA2EC1CF0D8B0CF
:100A8A0049EF05F04BEF05F0CEEF05F06AEF05F000
:100A9A0093C00FF094C010F095C011F096C012F0F8
:100AAA00000E136E000E146E200E156E410E166E99
:100ABA00A5EC0EF00FC093F010C094F011C095F0A1
:100ACA0012C096F000018F4B902B8BC028F08CC07F
:100ADA0029F08DC02AF08EC02BF0000E136E000E86
:100AEA00146E200E156E410E166E93C00FF094C050
:100AFA0010F095C011F096C012F0A5EC0EF00FC0E0
:100B0A002CF010C02DF011C02EF012C02FF03DECC9
:100B1A0019F0D8B093EF05F095EF05F04DEF05F019
:100B2A00B5EF05F093C028F094C029F095C02AF0DB
:100B3A0096C02BF0000E2C6E000E2D6E200E2E6E1F
:100B4A00410E2F6EBAEC10F028C093F029C094F031
:100B5A002AC095F02BC096F000018F07D8A0900705
:100B6A008BC028F08CC029F08DC02AF08EC02BF0E3
:100B7A0093C02CF094C02DF095C02EF096C02FF0A3
:100B8A003DEC19F0D8A0CCEF05F0CEEF05F097EFC9
:100B9A0005F05BC007F0086A2DEC1EF00750000153
:100BAA00806F80C07FF0670E8019D8A4DFEF05F050
:100BBA00E1EF05F007EF06F0E551E611D8A4E8EFFA
:100BCA0005F0EAEF05F0EEEF05F0000EE66F010E14
:100BDA00E56FE6BFFBEF05F0E65106E1E505D8B0A3
:100BEA00F9EF05F0FBEF05F001EF06F0000E7C6F60
:100BFA00060E7B6F10EF06F0E5C07BF0E6C07CF0D6
:100C0A0010EF06F0E6BF0CEF06F00EEF06F0FBEF72
:100C1A0005F001EF06F0670E8019D8A417EF06F069
:100C2A0019EF06F048EF06F090AF27EF06F0FC0E3A
:100C3A008F5DFF0E9059D8A025EF06F027EF06F03A
:100C4A0046EF06F0FF0E606FFF0E616F7BC062F029
:100C5A007CC063F060516227615163238F51625DEA
:100C6A006351800A646F9051800A6459D8A040EF9A
:100C7A0006F042EF06F046EF06F0660E7F6F48EF89
:100C8A0006F0650E7F6F7BC071F07CC072F0670E54
:100C9A008019D8A453EF06F055EF06F065EF06F079
:100CAA00660E7F19D8A45CEF06F05EEF06F067EFD8
:100CBA0006F090BF65EF06F063EF06F067EF06F007
:100CCA00714B722B660E7F19D8A46EEF06F070EF87
:100CDA0006F090EF06F090BF77EF06F075EF06F09A
:100CEA0083EF06F0000E936F000E946F800E956FDF
:100CFA003F0E966F000E906F000E8F6F670E801971
:100D0A00D8B48AEF06F08CEF06F090EF06F08F5118
:100D1A00712790517223000E8A6F000E896F8BC063
:100D2A0081F08CC082F08DC083F08EC084F093C0B5
:100D3A0073F094C074F095C075F096C076F021EF08
:100D4A0007F081C028F082C029F083C02AF084C04D
:100D5A002BF093C02CF094C02DF095C02EF096C0C5
:100D6A002FF0BAEC10F028C041F029C042F02AC096
:100D7A0043F02BC044F0E3EC13F041C085F042C0CD
:100D8A0086F043C087F044C088F085C001F086C071
:100D9A0002F087C003F088C004F0BAEC18F001C072
:100DAA0077F002C078F081C028F082C029F083C0B1
:100DBA002AF084C02BF093C013F094C014F095C0AD
:100DCA0015F096C016F085C00FF086C010F087C0E7
:100DDA0011F088C012F0A5EC0EF00FC02CF010C074
:100DEA002DF011C02EF012C02FF050EC1EF028C0CA
:100DFA0081F029C082F02AC083F02BC084F093C00E
:100E0A0028F094C029F095C02AF096C02BF0000E65
:100E1A002C6E000E2D6E200E2E6E410E2F6EBAEC29
:100E2A0010F028C093F029C094F02AC095F02BC086
:100E3A0096F00001894B8A2B7151895D8A51800A8B
:100E4A00606F7251800A6059D8A02EEF07F030EF18
:100E5A0007F0A6EF06F093C00FF094C010F095C00B
:100E6A0011F096C012F0000E136E000E146EA00E52
:100E7A00156E400E166EA5EC0EF00FC085F010C070
:100E8A0086F011C087F012C088F081C028F082C0B5
:100E9A0029F083C02AF084C02BF085C02CF086C0CC
:100EAA002DF087C02EF088C02FF03DEC19F0D8B095
:100EBA0061EF07F063EF07F06EEF07F0000E000135
:100ECA00856F000E866F000E876F000E886F97EF92
:100EDA0007F081C001F082C002F083C003F084C031
:100EEA0004F085C005F086C006F087C007F088C008
:100EFA0008F0A2EC1CF0D8A085EF07F087EF07F006
:100F0A0097EF07F0000177B18DEF07F08FEF07F049
:100F1A0097EF07F0000E856F000E866F000E876F41
:100F2A00000E886F8BC001F08CC002F08DC003F0F8
:100F3A008EC004F085C005F086C006F087C007F0B1
:100F4A0088C008F02AEC0AF001C081F002C082F0E1
:100F5A0003C083F004C084F081C028F082C029F065
:100F6A0083C02AF084C02BF0000E136E000E146E9C
:100F7A00200E156E410E166E73C00FF074C010F07D
:100F8A0075C011F076C012F0A5EC0EF00FC02CF06F
:100F9A0010C02DF011C02EF012C02FF03DEC19F048
:100FAA00D8A0DAEF07F0DCEF07F005EF08F0000150
:100FBA008F4B902B73C00FF074C010F075C011F0F6
:100FCA0076C012F0000E136E000E146E200E156E0F
:100FDA00410E166EA5EC0EF00FC073F010C074F03F
:100FEA0011C075F012C076F0660E00017F19D8A400
:100FFA0001EF08F003EF08F005EF08F0714B722BD0
:10100A0073C093F074C094F075C095F076C096F0F2
:10101A00650E00017F19D8B415EF08F017EF08F034
:10102A001DEF08F08FC06FF090C070F021EF08F04C
:10103A00000E706F000E6F6F000E6E6F000E6D6FF8
:10104A00000E6C6F000E6B6F000E8A6F000E896FB8
:10105A001CEF09F081C028F082C029F083C02AF071
:10106A0084C02BF093C02CF094C02DF095C02EF0C4
:10107A0096C02FF0BAEC10F028C041F029C042F017
:10108A002AC043F02BC044F0E3EC13F041C085F0D2
:10109A0042C086F043C087F044C088F085C001F0A2
:1010AA0086C002F087C003F088C004F0BAEC18F0DA
:1010BA0001C077F002C078F00001E7B967EF08F0E5
:1010CA0069EF08F086EF08F077517811D8A470EF2D
:1010DA0008F072EF08F086EF08F0670E8019D8A4BE
:1010EA0079EF08F07BEF08F086EF08F070BF82EF27
:1010FA0008F080EF08F086EF08F06B4B6C2BD0EF0E
:10110A0008F06D516E11D8A48DEF08F08FEF08F03A
:10111A00B9EF08F070BF96EF08F094EF08F0B9EF56
:10112A0008F0000E9125D96E010E9221DA6E2E0E6C
:10113A00DF6E914B922B7D07D8A07E07000E6E6F53
:10114A00010E6D6FB9EF08F0000E9125D96E010EF0
:10115A009221DA6E300EDF6E914B922B7D07D8A06A
:10116A007E076B07D8A06C076B516C11D8A4C0EF2F
:10117A0008F0C2EF08F0A9EF08F0000E9125D96E29
:10118A00010E9221DA6E7751300FDF6E914B922B5E
:10119A007D07D8A07E0781C028F082C029F083C0CD
:1011AA002AF084C02BF093C013F094C014F095C0B9
:1011BA0015F096C016F085C00FF086C010F087C0F3
:1011CA0011F088C012F0A5EC0EF00FC02CF010C080
:1011DA002DF011C02EF012C02FF050EC1EF028C0D6
:1011EA0081F029C082F02AC083F02BC084F093C01A
:1011FA0028F094C029F095C02AF096C02BF0000E72
:10120A002C6E000E2D6E200E2E6E410E2F6EBAEC35
:10121A0010F028C093F029C094F02AC095F02BC092
:10122A0096F000016F07D8A07007894B8A2B71517D
:10123A00895D8A51800A606F7251800A6059D8B0FC
:10124A0029EF09F02BEF09F039EF09F092BF37EFD8
:10125A0009F0925109E14B0E915DD8A037EF09F0E0
:10126A0039EF09F02FEF08F06D516E11D8A440EF55
:10127A0009F042EF09F053EF09F0E7A947EF09F047
:10128A0049EF09F053EF09F0000E9125D96E010ECE
:10129A009221DA6E2E0EDF6E914B922B000E912563
:1012AA00D96E010E9221DA6E000EDF6E650E7F197D
:1012BA00D8A462EF09F064EF09F0CBEF04F0000E56
:1012CA008A6F4F0E896F000E8925D96E010E8A2109
:1012DA00DA6E000EDF6E000E7A6F000E796F90BF25
:1012EA007BEF09F079EF09F083EF09F0000E7A6FCE
:1012FA00010E796F8F6D901FD8B0902B000E7C6F06
:10130A00020E7B6FB4EF09F08907D8A08A07000E96
:10131A008925D96E010E8A21DA6E8FC001F090C03C
:10132A0002F0000E046E0A0E036E4AEC1CF0015025
:10133A00300FDF6E8FC001F090C002F0000E046E15
:10134A000A0E036EE8EC1BF001C08FF002C090F0A9
:10135A0000017B07D8A07C077D07D8A07E078F51A4
:10136A009011D8A4BBEF09F0BDEF09F089EF09F09D
:10137A007CBFCAEF09F07C5106E17B05D8B0C8EF03
:10138A0009F0CAEF09F089EF09F08907D8A08A079E
:10139A0079517A11D8A4D4EF09F0D6EF09F0DCEF2D
:1013AA0009F0000E686F2B0E676FE0EF09F0000E70
:1013BA00686F2D0E676F000E8925D96E010E8A217E
:1013CA00DA6E67C0DFFF7D07D8A07E078907D8A03D
:1013DA008A07BF0E606FFF0E616F5B50626F636BAF
:1013EA006051622761516323635109E11A0E625DFC
:1013FA00D8A002EF0AF004EF0AF00AEF0AF0000E92
:10140A006A6F650E696F0EEF0AF0000E6A6F450E7D
:10141A00696F000E8925D96E010E8A21DA6E69C0BC
:10142A00DFFF7D07D8A07E07000E9125056E010E0D
:10143A009221066E000E8925076E010E8A21086E1A
:10144A00D6EC1DF0CBEF04F012000450800B0D6EA9
:10145A00045004240F6E03AE35EF0AF037EF0AF09A
:10146A0038EF0AF00F800F50D8B43EEF0AF040EF81
:10147A000AF055EF0AF00F28D8A446EF0AF048EF11
:10148A000AF050EF0AF0000E016E000E026E000E16
:10149A00036E000E046E038E000E046E5DEF0AF0FA
:1014AA00000E016E000E026E000E036E000E046E38
:1014BA000850800B0E6E0D500E18D8B467EF0AF064
:1014CA0069EF0AF06AEF0AF00D8C085008240E6ED4
:1014DA0007AE72EF0AF074EF0AF075EF0AF00E80A9
:1014EA000E50D8B47BEF0AF07DEF0AF092EF0AF0C3
:1014FA000E28D8A483EF0AF085EF0AF08DEF0AF0E0
:10150A00000E056E000E066E000E076E000E086EC7
:10151A00078E000E086E9AEF0AF0000E056E000E96
:10152A00066E000E076E000E086E0F500E5CD8B0E5
:10153A00A1EF0AF0A3EF0AF0CAEF0AF00DACA8EF88
:10154A000AF0AAEF0AF0ACEF0AF0800E0D1A0FC0EB
:10155A0010F00EC00FF010C00EF001C010F005C060
:10156A0001F010C005F002C010F006C002F010C071
:10157A0006F003C010F007C003F010C007F004C063
:10158A0010F008C004F010C008F0000E106E0F50E2
:10159A000EC009F00A6A095E000E0A5A0ABEDFEF97
:1015AA000AF00A5009E11A0E095CD8A0DFEF0AF026
:1015BA00E1EF0AF018EF0BF00150021003100410CB
:1015CA00D8A4EAEF0AF0EDEF0AF0010EEEEF0AF006
:1015DA00000E106E000E016E000E026E000E036EFB
:1015EA00000E046E0EC00FF021EF0BF010A000EFFA
:1015FA000BF002EF0BF008EF0BF0D8901030010956
:10160A00106E0AEF0BF0D890103201A00FEF0BF01A
:10161A0011EF0BF012EF0BF0108E04340432033288
:10162A00023201320F2A0E500F5CD8A01FEF0BF0C6
:10163A0021EF0BF0FBEF0AF00DBC26EF0BF028EFC1
:10164A000BF068EF0BF00F50D8A42EEF0BF030EF31
:10165A000BF03AEF0BF0000E016E000E026E000E58
:10166A00036E000E046E89EF0CF005500126065039
:10167A000222075003220850042204A047EF0BF06D
:10168A0049EF0BF0F5EF0BF010A04EEF0BF050EF17
:10169A000BF056EF0BF0D89010300109106E58EF8E
:1016AA000BF0D890103201A05DEF0BF05FEF0BF05A
:1016BA0060EF0BF0108E043404320332023201322E
:1016CA000F2AF5EF0BF00550015C0650025807503F
:1016DA0003580450800A096E0850800A0958D8B085
:1016EA0079EF0BF07BEF0BF0A6EF0BF00150055CE6
:1016FA00096E025006580A6E035007580B6E0450C2
:10170A0008580C6EFF0E0924016EFF0E0A20026EA5
:10171A00FF0E0B20036EFF0E0C20046E800E0D1AB6
:10172A00106C1050D8A49CEF0BF09EEF0BF0AEEFAC
:10173A000BF0010E0126000E022203220422AEEF54
:10174A000BF00550015E0650025A0750035A085022
:10175A00045A0150021003100410D8A4B7EF0BF07A
:10176A00B9EF0BF0EEEF0BF01050D8A4BFEF0BF06F
:10177A00C1EF0BF0EEEF0BF0000E016E000E026EE1
:10178A00000E036E000E046E89EF0CF0D89001363D
:10179A0002360336043610AED5EF0BF0D7EF0BF056
:1017AA00D8EF0BF0018010A0DDEF0BF0DFEF0BF0AC
:1017BA00E3EF0BF0D8801036E5EF0BF0D890103637
:1017CA000F50D8B4EBEF0BF0EDEF0BF0EEEF0BF0A0
:1017DA000F0603AEF3EF0BF0F5EF0BF0CBEF0BF0C8
:1017EA00000E0E6E10AEFCEF0BF0FEEF0BF016EFD4
:1017FA000CF010C009F07F0E0916D8B407EF0CF0F0
:10180A0009EF0CF00DEF0CF0010E0E6E16EF0CF056
:10181A0001A012EF0CF014EF0CF016EF0CF009EF28
:10182A000CF00E50D8B41CEF0CF01EEF0CF049EF80
:10183A000CF0010E0126000E02220322042204A04B
:10184A0029EF0CF02BEF0CF049EF0CF001C009F076
:10185A0002C00AF003C00BF004C00CF00C340C32C6
:10186A000B320A32093209C001F00AC002F00BC079
:10187A0003F00CC004F00F28D8B446EF0CF048EF80
:10188A000CF049EF0CF00F2A0F28D8B44FEF0CF0E8
:10189A0051EF0CF059EF0CF00F50D8A457EF0CF0A1
:1018AA0059EF0CF06BEF0CF0000E016E000E026E99
:1018BA00000E036E000E046E0F50D8A467EF0CF0F2
:1018CA0069EF0CF06BEF0CF0000E0D6E0FA070EFCD
:1018DA000CF072EF0CF075EF0CF0038E76EF0CF053
:1018EA00039ED8900F30046E0DAE7EEF0CF080EFA1
:1018FA000CF081EF0CF0048E01C001F002C002F07E
:10190A0003C003F004C004F0120099C0D9FF9AC0C2
:10191A00DAFFDECFF6FFDDCFF7FF0800F550250A24
:10192A00D8A49AEF0CF09CEF0CF089EF0EF099C056
:10193A00D9FF9AC0DAFFDE2A000EDD22000E00016E
:10194A00E46F000EE36FE3C0E7F0E4C0E8F0E56996
:10195A00E66999C0D9FF9AC0DAFFDECFF6FFDDCF7C
:10196A00F7FF0800F5502E0AD8A4BEEF0CF0C0EF1E
:10197A000CF030EF0DF0000EE66F000EE56F99C027
:10198A00D9FF9AC0DAFFDE2A000EDD2299C0D9FFFC
:10199A009AC0DAFFDECFF6FFDDCFF7FF0800F55079
:1019AA002A0AD8A4DBEF0CF0DDEF0CF0FAEF0CF00A
:1019BA0099C0D9FF9AC0DAFFDE2A000EDD229BC049
:1019CA00D9FF9CC0DAFFDFCF5CF0020EDE26DFCF44
:1019DA005DF0000EDD225CC0D9FF5DC0DAFFDECF0C
:1019EA00E5F0DDCFE6F030EF0DF099C0D9FF9AC0EF
:1019FA00DAFFDECF08F0DDCF09F0D1EC15F008C030
:101A0A00E5F009C0E6F011EF0DF099C0D9FF9AC0D0
:101A1A00DAFFDE2A000EDD22D00E5C6EFF0E5D6E4E
:101A2A0099C0D9FF9AC0DAFFDECFF6FFDDCFF7FF04
:101A3A000800F5505E6E5F6A5C505E265D505F225C
:101A4A005F5009E10A0E5E5CD8A02EEF0DF030EF70
:101A5A000DF00AEF0DF099C0D9FF9AC0DAFFDECF78
:101A6A00F6FFDDCFF7FF0800F550076E086A2DEC88
:101A7A001EF007500001A16FA151D8B447EF0DF035
:101A8A0049EF0DF083EF0DF099C0D9FF9AC0DAFF44
:101A9A00DECF5CF0DDCF5DF0010E5C26000E5D222C
:101AAA005CC0F6FF5DC0F7FF0800F550076E086AD4
:101ABA002DEC1EF007500001A26FA251D8B468EFB6
:101ACA000DF06AEF0DF083EF0DF099C0D9FF9AC0BF
:101ADA00DAFFDECF5CF0DDCF5DF0020E5C26000E91
:101AEA005D225CC0F6FF5DC0F7FF0800F550076E87
:101AFA00086A2DEC1EF007500001A36F660EA119AB
:101B0A00D8A48AEF0DF08CEF0DF0CCEF0DF099C050
:101B1A00D9FF9AC0DAFFDECFF6FFDDCFF7FF080064
:101B2A00F5CFA4F099C0D9FF9AC0DAFFDE2A000ED9
:101B3A00DD229BC0D9FF9CC0DAFFDFCF5CF0040E28
:101B4A00DE26DFCF5DF0000EDD225CC0D9FF5DC06E
:101B5A00DAFFDECF9DF0DECF9EF0DECF9FF0DECF44
:101B6A00A0F097C055F098C056F09DC057F09EC09F
:101B7A0058F09FC059F0A0C05AF0A4C05BF025EC01
:101B8A0004F055C097F056C098F0A4EF0EF0A10EDD
:101B9A00016E000E026E450E036E080E046E000EF4
:101BAA00066E020E056EB5EC1AF001500210D8A4AA
:101BBA00E1EF0DF0E3EF0DF051EF0EF099C0D9FF10
:101BCA009AC0DAFFDECF5CF0DDCF5DF0010E5C2655
:101BDA00000E5D225CC0F6FF5DC0F7FF0800F5CF7E
:101BEA00A4F0BF0E5C6EFF0E5D6E99C0D9FF9AC05D
:101BFA00DAFFDECFF6FFDDCFF7FF0800F5505E6EA5
:101C0A005F6A5C505E265D505F225F5007E11A0EE4
:101C1A005E5CD8B013EF0EF015EF0EF02FEF0EF05A
:101C2A009BC0D9FF9CC0DAFFDFCF5CF0040EDE2632
:101C3A00DFCF5DF0000EDD225CC0D9FF5DC0DAFFA8
:101C4A00DECF9DF0DECF9EF0DECF9FF0DECFA0F09C
:101C5A0047EF0EF09BC0D9FF9CC0DAFFDFCF5CF0E4
:101C6A00040EDE26DFCF5DF0000EDD225CC0D9FF58
:101C7A005DC0DAFFDECF9DF0DECF9EF0DECF9FF0B3
:101C8A00DECFA0F0020E99C0D9FF9AC0DAFFDE2695
:101C9A00000EDD22B6EF0DF099C0D9FF9AC0DAFF27
:101CAA00DECFF6FFDDCFF7FF0800F550250AD8A4EE
:101CBA0061EF0EF063EF0EF07BEF0EF099C0D9FFE3
:101CCA009AC0DAFFDE2A000EDD22000E026E250E11
:101CDA00016E97C003F098C004F020EC1BF0000ED0
:101CEA000001986F010E976FA4EF0EF099C0D9FF0B
:101CFA009AC0DAFFDE2A000EDD22000E0001986F7C
:101D0A00000E976FA4EF0EF099C0D9FF9AC0DAFFC0
:101D1A00DECFF6FFDDCFF7FF0800F550016E026A4D
:101D2A0097C003F098C004F020EC1BF099C0D9FFCB
:101D3A009AC0DAFFDE2A000EDD2274EF0EF01200DE
:101D4A001250800B1B6E12501224216E11AEB0EF8E
:101D5A000EF0B2EF0EF0B3EF0EF021802150D8B49E
:101D6A00B9EF0EF0BBEF0EF0CEEF0EF02128D8A49B
:101D7A00C1EF0EF0C3EF0EF0CBEF0EF0000E0F6EB8
:101D8A00000E106E000E116E000E126E118ED6EF3E
:101D9A000EF0000E0F6E000E106E000E116E000E89
:101DAA00126E1650800B1B1A16501624206E15AE92
:101DBA00E1EF0EF0E3EF0EF0E4EF0EF0208020509A
:101DCA00D8B4EAEF0EF0ECEF0EF0FFEF0EF0202899
:101DDA00D8A4F2EF0EF0F4EF0EF0FCEF0EF0000EC6
:101DEA00136E000E146E000E156E000E166E158E12
:101DFA0007EF0FF0000E136E000E146E000E156E34
:101E0A00000E166E2050D8B40DEF0FF00FEF0FF042
:101E1A0017EF0FF02150D8A415EF0FF017EF0FF0BE
:101E2A0021EF0FF0000E0F6E000E106E000E116EF5
:101E3A00000E126EB9EF10F015500F02F3CF26F014
:101E4A00F4CF27F026501C6E1D6A1E6A1F6A27509F
:101E5A00226E236A246A256A14501002F3CF26F0F0
:101E6A00F4CF27F026501C26000E1D221E221F2208
:101E7A0027502226000E2322242225221350110243
:101E8A00F3CF26F0F4CF27F026501C26000E1D2291
:101E9A001E221F2227502226000E23222422252218
:101EAA001EC01FF01DC01EF01CC01DF01C6A13507E
:101EBA001002F3CF26F0F4CF27F026501C26275025
:101ECA001D22000E1E22000E1F2214500F02F3CFF5
:101EDA0026F0F4CF27F026501C2627501D22000E8C
:101EEA001E22000E1F221EC01FF01DC01EF01CC0A5
:101EFA001DF01C6A13500F02F3CF26F0F4CF27F01F
:101F0A0026501C2627501D22000E1E22000E1F22BC
:101F1A0015501002F3CF26F0F4CF27F026502226D0
:101F2A0027502322000E2422000E252214501102CB
:101F3A00F3CF26F0F4CF27F026502226275023226B
:101F4A00000E2422000E252215501102F3CF26F08E
:101F5A00F4CF27F02650176E2750186E196A1A6A9E
:101F6A0019C01AF018C019F017C018F0176A1750DC
:101F7A00222618502322195024221A5025221CC026
:101F8A0017F01DC018F01EC019F01FC01AF0190E64
:101F9A00D4EF0FF0D8901A32193218321732E82ECD
:101FAA00CFEF0FF01750222618502322195024225F
:101FBA001A5025221EC01FF01DC01EF01CC01DF0A5
:101FCA001C6A205021C017F0186A1726000E182222
:101FDA00820E1724266EFF0E1820276E0AEF10F0C5
:101FEA00D89022362336243625361FAEFFEF0FF05F
:101FFA0001EF10F002EF10F02280D8901C361D3647
:10200A001E361F362606D8A0270624AE0FEF10F07C
:10201A0011EF10F0F5EF0FF0000E206E1FAE18EF63
:10202A0010F01AEF10F03EEF10F0FF0E1C14176EAE
:10203A00FF0E1D14186EFF0E1E14196E7F0E1F144C
:10204A001A6E1750181019101A10D8B42FEF10F072
:10205A0031EF10F035EF10F0010E206E3EEF10F068
:10206A0022A03AEF10F03CEF10F03EEF10F031EF03
:10207A0010F02050D8B444EF10F046EF10F06AEF99
:10208A0010F0010E2226000E23222422252225A04A
:10209A0051EF10F053EF10F06AEF10F022C017F072
:1020AA0023C018F024C019F025C01AF01A341A32C5
:1020BA0019321832173217C022F018C023F019C08B
:1020CA0024F01AC025F0264A272A27BE75EF10F0F9
:1020DA00275008E12628D8A075EF10F077EF10F006
:1020EA0081EF10F0000E226E000E236E800E246E19
:1020FA007F0E256EAFEF10F027BE8EEF10F027503F
:10210A0006E12604D8B08CEF10F08EEF10F09AEFAB
:10211A0010F0000E226E000E236E000E246E000ECA
:10212A00256E000E1B6EAFEF10F026C021F0FF0ED9
:10213A002216FF0E23167F0E2416000E251621A046
:10214A00A9EF10F0ABEF10F0ACEF10F0248ED8909E
:10215A002130256E1B50251222C00FF023C010F02B
:10216A0024C011F025C012F012002B50800B386EDB
:10217A002B502B243F6E2AAEC5EF10F0C7EF10F09C
:10218A00C8EF10F03F803F50D8B4CEEF10F0D0EF38
:10219A0010F0E5EF10F03F28D8A4D6EF10F0D8EFF2
:1021AA0010F0E0EF10F0000E286E000E296E000EFF
:1021BA002A6E000E2B6E2A8E000E2B6EEDEF10F09B
:1021CA00000E286E000E296E000E2A6E000E2B6E6F
:1021DA002F50800B381A2F502F24406E2EAEF8EF56
:1021EA0010F0FAEF10F0FBEF10F040804050D8B436
:1021FA0001EF11F003EF11F018EF11F04028D8A405
:10220A0009EF11F00BEF11F013EF11F0000E2C6E25
:10221A00000E2D6E000E2E6E000E2F6E2E8E000EEC
:10222A002F6E20EF11F0000E2C6E000E2D6E000E98
:10223A002E6E000E2F6E2C502D102E102F10D8A49B
:10224A0029EF11F02BEF11F043EF11F0000E286E79
:10225A00000E296E000E2A6E000E2B6E800E2A12B8
:10226A007F0E2B1238502B1228C028F029C029F0D3
:10227A002AC02AF02BC02BF086EF12F03F50D8A4C8
:10228A0049EF11F04BEF11F055EF11F0000E286EE7
:10229A00000E296E000E2A6E000E2B6E86EF12F0CB
:1022AA0040503FC030F0316A305E000E315A7F0E26
:1022BA003024396E000E31203A6E28C034F029C01D
:1022CA0035F02AC036F02BC037F0000E286E000E0B
:1022DA00296E000E2A6E000E2B6E000E3B6E000E4B
:1022EA003C6E000E3D6E000E3E6E000E406EB6EF66
:1022FA0011F04050D8B484EF11F086EF11F09DEF41
:10230A0011F0D8903436353636363736D8902836E6
:10231A0029362A362B363EAE95EF11F097EF11F09B
:10232A0098EF11F02880D8903B363C363D363E3641
:10233A002C50345C2D5035582E5036582F50375863
:10234A00D8A0AAEF11F0ACEF11F0B5EF11F03E8C66
:10235A002C50345E2D50355A2E50365A2F50375A3B
:10236A00402A190E4064BCEF11F0BEEF11F07EEF67
:10237A0011F03450351036103710D8B4C7EF11F0B9
:10238A00C9EF11F0E1EF11F03B80E1EF11F0D890C5
:10239A00283629362A362B363EAED6EF11F0D8EF3C
:1023AA0011F0D9EF11F02880D8903B363C363D36F3
:1023BA003E363906D8A03A062AAEE6EF11F0E8EF23
:1023CA0011F0CCEF11F0000E406E3EAEEFEF11F0BF
:1023DA00F1EF11F015EF12F0FF0E3B14306EFF0E05
:1023EA003C14316EFF0E3D14326E7F0E3E14336E76
:1023FA003050311032103310D8B406EF12F008EF13
:10240A0012F00CEF12F0010E406E15EF12F028A038
:10241A0011EF12F013EF12F015EF12F008EF12F0AD
:10242A004050D8B41BEF12F01DEF12F041EF12F03A
:10243A00010E2826000E29222A222B222BA028EF61
:10244A0012F02AEF12F041EF12F028C030F029C042
:10245A0031F02AC032F02BC033F033343332323207
:10246A003132303230C028F031C029F032C02AF07F
:10247A0033C02BF0394A3A2A3ABE4CEF12F03A509E
:10248A0008E13928D8A04CEF12F04EEF12F059EFBC
:10249A0012F0000E3A6E3968000E286E000E296E90
:1024AA00000E2A6E000E2B6E3ABE66EF12F03A50FC
:1024BA0006E13904D8B064EF12F066EF12F074EF57
:1024CA0012F0000E3A6E000E396E000E286E000EE3
:1024DA00296E000E2A6E000E2B6E000E386E39C061
:1024EA003FF03FA07BEF12F07DEF12F080EF12F089
:1024FA002A8E81EF12F02A9ED8903F302B6E37EF4A
:10250A0011F01200500E0001AD6F010EAE6F000EF9
:10251A00B06F140EAF6F240EB16F080EB26FEFC01A
:10252A00B3F0F0C0B4F0F1C0B5F0F2C0B6F030ECE0
:10253A0018F0500E0F6E010E106E410E116E080E3D
:10254A00126E9BEC1FF0010EF7EC1EF0410E00011B
:10255A00CD6FEE0EE82EFED7CD2FFCD700F0800E01
:10256A00F7EC1EF01E0E026E080E036E3BEC1DF019
:10257A00410E0001CD6FEE0EE82EFED7CD2FFCD70F
:10258A0000F0860EF7EC1EF0500E026E010E036E7E
:10259A003BEC1DF0410E0001CD6FEE0EE82EFED78A
:1025AA00CD2FFCD700F0C00EF7EC1EF0120E026E13
:1025BA00080E036E3BEC1DF0410E0001CD6FEE0ECE
:1025CA00E82EFED7CD2FFCD700F0D8EF13F085EC1C
:1025DA001FF001C0EBF002C0ECF0660E136E660E3F
:1025EA00146E9C0E156E400E166EEBC001F0ECC018
:1025FA0002F0000E02BEFF0E036E046E010EB0EC76
:10260A0016F001C00FF002C010F003C011F004C0B0
:10261A0012F0A5EC0EF00FC028F010C029F011C07E
:10262A002AF012C02BF0000E2C6E000E2D6E200E1A
:10263A002E6E410E2F6EBAEC10F028C0EFF029C0B2
:10264A00F0F02AC0F1F02BC0F2F0500E0001AD6F8D
:10265A00010EAE6F000EB06F140EAF6F240EB16F85
:10266A00080EB26FEFC0B3F0F0C0B4F0F1C0B5F02D
:10267A00F2C0B6F030EC18F0500E0F6E010E106E6C
:10268A00410E116E080E126E9BEC1FF0500E0F6E6B
:10269A00010E106E390E116E080E126E9BEC1FF0B1
:1026AA00860EF7EC1EF0500E026E010E036E3BEC26
:1026BA001DF0410E0001CD6FEE0EE82EFED7CD2F94
:1026CA00FCD700F0EFC028F0F0C029F0F1C02AF0E2
:1026DA00F2C02BF0F5C001F0F6C002F0000E02BE07
:1026EA00FF0E036E046E010EB0EC16F001C02CF062
:1026FA0002C02DF003C02EF004C02FF03DEC19F0FB
:10270A00D8A08AEF13F08CEF13F0A1EF13F08380B7
:10271A00C80EF7EC1EF03D0E026E080E036E3BEC7F
:10272A001DF0410E0001CD6FEE0EE82EFED7CD2F23
:10273A00FCD700F0ADEF13F08390C80EF7EC1EF053
:10274A001A0E026E080E036E3BEC1DF096EF13F0A4
:10275A00F3C001F0F4C002F0000E02BEFF0E036ED9
:10276A00046E010EB0EC16F001C028F002C029F088
:10277A0003C02AF004C02BF0EFC02CF0F0C02DF0FB
:10278A00F1C02EF0F2C02FF03DEC19F0D8B0D0EF26
:10279A0013F0D2EF13F0D5EF13F08382D6EF13F0D4
:1027AA0083928AEC17F0410E0001FB19D8A4E0EFDE
:1027BA0013F0E2EF13F0ECEF12F01200D9C051F06F
:1027CA00DAC052F0DBC053F0DCC054F041C051F023
:1027DA0042C052F043C053F044C054F0810E456EDB
:1027EA00FF0E466E51C047F052C048F053C049F040
:1027FA0054C04AF0180E07EF14F0D8904A32493202
:10280A0048324732E82E02EF14F0475045244F6E03
:10281A00000E4620506E50BE1CEF14F0505009E1D5
:10282A00170E4F5CD8A01CEF14F01EEF14F028EF1F
:10283A0014F041C041F042C042F043C043F044C0EA
:10284A0044F0EBEF14F050BE2DEF14F02FEF14F01C
:10285A009FEF14F04FC045F0FF0E466EFF0E476E15
:10286A007F0E486E000E496E45663EEF14F046EF45
:10287A0014F049344932483247324632452E39EF4C
:10288A0014F046C04BF047C04CF048C04DF049C068
:10289A004EF04B505114456E4C505214466E4D50EA
:1028AA005314476E4E505414486E45504610471004
:1028BA004810D8A463EF14F065EF14F067EF14F032
:1028CA001EEF14F051C045F052C046F053C047F015
:1028DA0054C048F0200E77EF14F0D89048324732AF
:1028EA0046324532E82E72EF14F045504610471032
:1028FA004810D8B483EF14F085EF14F08DEF14F07C
:10290A004B5051264C5052224D5053224E50542275
:10291A004B1C456E4C1C466E4D1C476E4E1C486E39
:10292A0045505116465052164750531648505416A1
:10293A00E3EF14F051C045F052C046F053C047F0DF
:10294A0054C048F0200EAFEF14F0D8904832473206
:10295A0046324532E82EAAEF14F045504610471089
:10296A004810D8A4BBEF14F0BDEF14F0C7EF14F071
:10297A00000E516E000E526E000E536E000E546E13
:10298A00E3EF14F0D8905134456E5234466E533406
:10299A00476E5434486E4550461047104810D8B414
:1029AA00D9EF14F0DBEF14F0E3EF14F0000E516EE0
:1029BA00000E526E800E536EBF0E546E51C041F01F
:1029CA0052C042F053C043F054C044F0120020EE0B
:1029DA0014F0090EDE6AE806FDE2000E1F6E000E14
:1029EA001E6E010EF7EC1EF0410E126EEE0EE82E70
:1029FA00FED7122EFCD700D0800EF7EC1EF01E0E6A
:102A0A00026E080E036E3BEC1DF0410E126EEE0EC6
:102A1A00E82EFED7122EFCD700D0C00EF7EC1EF01F
:102A2A00010E026E080E036E3BEC1DF0410E126E93
:102A3A00EE0EE82EFED7122EFCD700D08AEC17F045
:102A4A00030E136E080E126E770EE82EFED7122EA4
:102A5A00FCD7132EFAD700F0410E0001FB19D8B4A7
:102A6A0039EF15F03BEF15F023EF15F0420EFB1985
:102A7A00D8B442EF15F044EF15F023EF15F0430EEA
:102A8A00FB19D8B44BEF15F04DEF15F023EF15F005
:102A9A00440EFB19D8B454EF15F056EF15F023EF96
:102AAA0015F0230EFB19D8A45DEF15F05FEF15F0B2
:102ABA0061EF15F023EF15F02A0EFB19D8A468EF81
:102ACA0015F06AEF15F09EEF15F0140E016E000E68
:102ADA00026E6AEC1FF001500210D8B477EF15F0BD
:102AEA0079EF15F09EEF15F0140E086E000E096EC0
:102AFA00D1EC15F008C0F5F009C0F6F00001F6BFF8
:102B0A0090EF15F0F40EF55D010EF659D8A090EF8E
:102B1A0015F092EF15F096EF15F0010EF66FF30E21
:102B2A00F56FF5C0F3F0F6C0F4F0420EFB6FD0EF8C
:102B3A0015F00001F751F811D8B4A6EF15F0A8EF77
:102B4A0015F0CEEF15F0140E016E000E026E6AEC4F
:102B5A001FF0025007E1030E015CD8B0B7EF15F081
:102B6A00B9EF15F0CEEF15F0140E1E24D96E000E33
:102B7A001F20DA6EFBC0DFFF1E4A1F2A860EF7EC03
:102B8A001EF0140E026E000E036E3BEC1DF01BEFDE
:102B9A0015F023EF15F01200000E116E000E106EE4
:102BAA00000E0F6E000E0E6EDDEF15F0084A092AB0
:102BBA0008C0F6FF09C0F7FFF86A070EF76403D0EA
:102BCA000800F55005D0F6CFE1FFF7CFE2FFE75056
:102BDA00200AD8B4F3EF15F0F5EF15F0DBEF15F096
:102BEA00F70E0A6EFF0E0B6E08C0F6FF09C0F7FF5C
:102BFA00F86A070EF76403D00800F55005D0F6CF3F
:102C0A00E1FFF7CFE2FFE7500C6E0D6A0A500C267F
:102C1A000B500D220D5009E1050E0C5CD8A018EFDF
:102C2A0016F01AEF16F0DBEF15F024EF16F0000E8F
:102C3A000F6E010E0E6E084A092A6FEF16F008C0D1
:102C4A00F6FF09C0F7FFF86A070EF76403D0080019
:102C5A00F55005D0F6CFE1FFF7CFE2FFE7500A6E55
:102C6A000B6A0B50000AD8B43DEF16F06FEF16F05E
:102C7A000A502B0AD8B420EF16F0060AD8B41CEF73
:102C8A0016F06FEF16F010C001F011C002F0000E3E
:102C9A00046E0A0E036EAEEC1FF008C0F6FF09C000
:102CAA00F7FFF86A070EF76403D00800F55005D05D
:102CBA00F6CFE1FFF7CFE2FFE7500A6E0A50015E56
:102CCA00000E025A300E0124106E000E0220116E00
:102CDA0020EF16F0D00E0A6EFF0E0B6E08C0F6FF3C
:102CEA0009C0F7FFF86A070EF76403D00800F55029
:102CFA0005D0F6CFE1FFF7CFE2FFE7500C6E0D6A81
:102D0A000A500C260B500D220D5009E10A0E0C5CDC
:102D1A00D8A092EF16F094EF16F048EF16F00E5086
:102D2A000F10D8A49BEF16F09DEF16F0ABEF16F03C
:102D3A0010C00AF011C00BF00A1E0B1E0A4A0B2A19
:102D4A000AC008F00BC009F0AFEF16F010C008F087
:102D5A0011C009F01200096E0950D8B4B7EF16F085
:102D6A00B9EF16F0DBEF16F004BEC0EF16F0BEEFB7
:102D7A0016F0DBEF16F001C005F002C006F003C042
:102D8A0007F004C008F0051E061E071E081E052AC5
:102D9A00000E06220722082205C00BF006C00CF01E
:102DAA0007C00DF008C00EF0E3EF16F001C00BF0FB
:102DBA0002C00CF003C00DF004C00EF00150021066
:102DCA0003100410D8A4ECEF16F0EEEF16F0F8EFAB
:102DDA0016F0000E016E000E026E000E036E000E5B
:102DEA00046E89EF17F0960E0A6E02EF17F00A2AA0
:102DFA00D8900E320D320C320B32000E0B14056EC7
:102E0A00000E0C14066E000E0D14076EFE0E0E1444
:102E1A00086E0550061007100810D8A417EF17F00F
:102E2A0019EF17F0FCEF16F027EF17F00A2A010E38
:102E3A000B26000E0C220D220E22D8900E320D32D5
:102E4A000C320B32000E0B14056E000E0C14066EBB
:102E5A00000E0D14076EFF0E0E14086E05500610B4
:102E6A0007100810D8A43CEF17F03EEF17F01BEF3D
:102E7A0017F046EF17F00A06D8900B360C360D36C7
:102E8A000E360DBE4BEF17F04DEF17F055EF17F05A
:102E9A00020E0A6053EF17F055EF17F040EF17F0E4
:102EAA000AB05AEF17F05CEF17F05DEF17F00D9EBE
:102EBA00D8900A320AC005F0066A076A086A05C08D
:102ECA0008F0076A066A056A05500B1206500C12CA
:102EDA0007500D1208500E120950D8B477EF17F0A8
:102EEA0079EF17F081EF17F004BE80EF17F07EEF4D
:102EFA0017F081EF17F00E8E0BC001F00CC002F034
:102F0A000DC003F00EC004F01200000E0001F86FAD
:102F1A00000EF76FED51EE11D8A496EF17F098EF67
:102F2A0017F09BEF17F081969CEF17F08186ED055D
:102F3A00EE11D8A4A3EF17F0A5EF17F0A8EF17F03A
:102F4A008194A9EF17F08184020EED19EE11D8A42D
:102F5A00B1EF17F0B3EF17F0B6EF17F08192B7EFB2
:102F6A0017F08182030EED19EE11D8A4BFEF17F006
:102F7A00C1EF17F0C4EF17F08190C5EF17F0818009
:102F8A00000EFA6F040EF96F81B8CEEF17F0D0EF8A
:102F9A0017F0D4EF17F0000EFA6F000EF96F81BA2E
:102FAA00D9EF17F0DBEF17F0DFEF17F0000EFA6F2B
:102FBA00010EF96F81BCE4EF17F0E6EF17F0EAEFC4
:102FCA0017F0000EFA6F020EF96F81BEEFEF17F0DD
:102FDA00F1EF17F0F5EF17F0000EFA6F030EF96F25
:102FEA00040EF919FA11D8B4FDEF17F0FFEF17F034
:102FFA001DEF18F0F9C001F0FAC002F0D8900136BE
:10300A000236D89001360236640E036E010E046E43
:10301A000150032602500422ED510324D96EEE51C9
:10302A000420DA6EDF50FB6F000EF86F010EF76FA7
:10303A00030EED19EE11D8A425EF18F027EF18F0BA
:10304A002DEF18F0000EEE6F000EED6F2FEF18F057
:10305A00ED4BEE2B1200800E0001B05DD8A038EFC8
:10306A0018F03AEF18F040EF18F0000EEA6F4B0E26
:10307A00E96FB9EF18F0B30EBE6F000EBF6FADC0A7
:10308A00C2F0AEC0C3F0B05109E1020EAF5DD8A0E4
:10309A0051EF18F053EF18F05FEF18F0FF0EAF255D
:1030AA00CB6FFF0EB021CC6F000EC66F000EC56F3E
:1030BA0067EF18F0000ECC6F010ECB6F000EC66FD3
:1030CA00010EC56FC20EA56F000EA66FB1C0A7F0A4
:1030DA00B2C0A8F0BE0EA96F000EAA6FA5EC1DF033
:1030EA00A5C0C0F0A6C0C1F00001AF51B011D8B45C
:1030FA0081EF18F083EF18F0B9EF18F0C1BF88EF2D
:10310A0018F08AEF18F0B9EF18F0FF0EB76FFF0E3C
:10311A00B86FAFC0B9F0B0C0BAF0B751B927B8515B
:10312A00BA23B951C05DC151800ABB6FBA51800A36
:10313A00BB59D8A0A3EF18F0A5EF18F0ADEF18F01F
:10314A00FF0EAF25BC6FFF0EB021BD6FB1EF18F0B7
:10315A00C0C0BCF0C1C0BDF0BC51AD25D96EBD51D7
:10316A00AE21DA6E000EDF6E1200033404340A6EEA
:10317A000A50D8A4C3EF18F0C5EF18F0CFEF18F033
:10318A00000E016E000E026E000E036E000E046E3B
:10319A003CEF19F001C005F002C006F003C007F0C9
:1031AA0004C008F0200EDFEF18F0D890083207327A
:1031BA0006320532E82EDAEF18F00550096E038E52
:1031CA00FF0E0116FF0E0216FF0E0316000E04165E
:1031DA00960E0A5E0ABEF6EF18F0F4EF18F00CEF3E
:1031EA0019F00A50800A970FD8B0FEEF18F000EFD6
:1031FA0019F002EF19F0C5EF18F0D8900432033233
:10320A00023201320A3E02EF19F024EF19F01F0EC2
:10321A000A6412EF19F014EF19F01CEF19F0C5EF58
:10322A0018F0D89001360236033604360A060A50D8
:10323A00D8A422EF19F024EF19F016EF19F009506B
:10324A00D8B42AEF19F02CEF19F034EF19F0041E54
:10325A00031E021E016C000E02220322042201C078
:10326A0001F002C002F003C003F004C004F012002F
:10327A00000E2814306E000E2914316E800E2A14A6
:10328A00326E7F0E2B14336E3050311032103310E1
:10329A00D8A452EF19F054EF19F05CEF19F0000EB0
:1032AA00286E000E296E000E2A6E000E2B6E000E7E
:1032BA002C14306E000E2D14316E800E2E14326EC8
:1032CA007F0E2F14336E3050311032103310D8A4C1
:1032DA0071EF19F073EF19F07BEF19F0000E2C6EF5
:1032EA00000E2D6E000E2E6E000E2F6E2BAE80EF8E
:1032FA0019F082EF19F08BEF19F0286C291ED8B05B
:10330A00292A2A1ED8B02A2A800E2B562FAE90EFD1
:10331A0019F092EF19F09BEF19F02C6C2D1ED8B012
:10332A002D2A2E1ED8B02E2A800E2F56000E281AAD
:10333A00000E291A000E2A1A800E2B1A000E2C1AB9
:10334A00000E2D1A000E2E1A800E2F1A2C50285CF1
:10335A002D5029582E502A582F502B58D8B0B8EF34
:10336A0019F0BAEF19F0BDEF19F0D890BEEF19F0C5
:10337A00D8801200DDC00BF0DEC00CF0DFC00DF00B
:10338A00E0C00EF001C00BF002C00CF003C00DF05B
:10339A0004C00EF00BC005F00CC006F00DC007F01B
:1033AA000EC008F0180EDFEF19F0D8900832073275
:1033BA0006320532E82EDAEF19F00550096E0A6A6C
:1033CA0009500A10D8A4ECEF19F0EEEF19F00EEF3D
:1033DA001AF0D8900B34056E0C34066E0D34076E55
:1033EA000E34086E0550061007100810D8A400EF16
:1033FA001AF002EF1AF008EF1AF0000E026E020E2F
:10340A00016E3DEF1AF0000E026E030E016E3DEFE3
:10341A001AF009280A10D8A415EF1AF017EF1AF0B3
:10342A0039EF1AF00BC005F00CC006F00DC007F01A
:10343A000EC008F0090ED89005360636073608364B
:10344A00E82E20EF1AF00550061007100810D8B41D
:10345A0031EF1AF034EF1AF0010E35EF1AF0000EC0
:10346A00016E026A3DEF1AF0000E026E040E016E42
:10347A001200026E0F0E83160F0E951696949690F2
:10348A0096928D948D908D92D2EC1FF0300EF7ECBF
:10349A001EF0C1EC1FF0C1EC1FF0300EF7EC1EF06D
:1034AA00C1EC1FF0C1EC1FF0320EF7EC1EF073EC0A
:1034BA001EF00009D8A464EF1AF066EF1AF05CEF68
:1034CA001AF073EC1EF00009D8A46EEF1AF070EF30
:1034DA001AF066EF1AF00250F7EC1EF073EC1EF0C9
:1034EA000009D8A47BEF1AF07DEF1AF073EF1AF0F7
:1034FA00080EF7EC1EF073EC1EF00009D8A488EF52
:10350A001AF08AEF1AF080EF1AF00F0EF7EC1EF09D
:10351A0073EC1EF00009D8A495EF1AF097EF1AF091
:10352A008DEF1AF0010EF7EC1EF073EC1EF0000995
:10353A00D8A4A2EF1AF0A4EF1AF09AEF1AF0040E28
:10354A00F7EC1EF073EC1EF00009D8A4AFEF1AF0E6
:10355A00B1EF1AF0A7EF1AF0800EB8EC1EF01200C5
:10356A0001C008F002C009F003C00AF004C00BF061
:10357A000506D8A00606052806E10628D8A4C8EF3D
:10358A001AF0CAEF1AF0D7EF1AF0000E026E000E08
:10359A00016E1FEF1BF0084A092A0A4A0B2A050680
:1035AA00D8A0060608C0D9FF09C0DAFFDF50D8B490
:1035BA00E1EF1AF0E3EF1AF00EEF1BF00AC0F6FF84
:1035CA000BC0F7FF0800F5500009D8B4EFEF1AF066
:1035DA00F1EF1AF00EEF1BF005500610D8B4F8EF11
:1035EA001AF0FAEF1AF00EEF1BF008C0D9FF09C063
:1035FA00DAFFDF50076E0AC0F6FF0BC0F7FF0800BC
:10360A00F5500718D8B40CEF1BF00EEF1BF0D0EFF3
:10361A001AF008C0D9FF09C0DAFFDF50076E0AC0E6
:10362A00F6FF0BC0F7FF0800F550075C016E026A4F
:10363A00D8A00206120003500410D8B427EF1BF0DA
:10364A0029EF1BF032EF1BF003500410D8A430EF1F
:10365A001BF032EF1BF037EF1BF00150E6EC1FF0C6
:10366A0084EF1BF020EE09F00350D9260450DA2229
:10367A00DE50DE10D8B444EF1BF046EF1BF061EFCA
:10368A001BF020EE09F00350D9260450DA2210EE7E
:10369A0003F00350E1260450E222DE50E65CE650D5
:1036AA00800A096EDE50800A0958D8B05FEF1BF015
:1036BA0061EF1BF084EF1BF020EE03F00350D926D4
:1036CA000450DA22DECF05F0DDCF06F003C0D9FFC1
:1036DA0004C0DAFFDECF07F0DDCF08F0055007247B
:1036EA00D96E06500820DA6E01C0DFFF20EE03F023
:1036FA000350D9260450DA22DE2A000EDD221200F7
:10370A000001E7A18BEF1BF08DEF1BF097EF1BF089
:10371A0013C00AF014C00BF011C00CF012C00DF067
:10372A0096EC1EF016BE9CEF1BF09EEF1BF0A4EF6A
:10373A001BF015C01AF016C01BF0A8EF1BF0000E04
:10374A001B6E000E1A6E000E196E000E186EBAEF7E
:10375A001BF0000E026E200E016E11C003F012C0A3
:10376A0004F020EC1BF0184A192A1A50185C195058
:10377A00800A176E1B50800A1758D8A0C7EF1BF093
:10378A00C9EF1BF0AEEF1BF00001E7B1CFEF1BF062
:10379A00D1EF1BF0DBEF1BF013C00AF014C00BF0E3
:1037AA0011C00CF012C00DF096EC1EF013C001F01F
:1037BA0014C002F06AEC1FF01A500124116E1B505B
:1037CA000220126E1200000E066E04BEF1EF1BF00C
:1037DA00EFEF1BF0F7EF1BF0036C041ED8B0042ABE
:1037EA00010E066E02BEFEEF1BF0FCEF1BF004EFAB
:1037FA001CF0016C021ED8B0022A010E061A000E35
:10380A00086E000E076E03500410D8B40FEF1CF0B8
:10381A0011EF1CF039EF1CF0010E056E19EF1CF0C8
:10382A00D89003360436052A04AE1EEF1CF020EFAA
:10383A001CF015EF1CF0D890073608360350015CCF
:10384A0004500258D8A02CEF1CF02EEF1CF033EFD6
:10385A001CF00350015E0450025A0780D8900432CB
:10386A000332052E20EF1CF00650D8B43FEF1CF0AF
:10387A0041EF1CF045EF1CF0076C081ED8B0082A6F
:10388A0007C001F008C002F01200000E066E02BE68
:10389A0053EF1CF051EF1CF059EF1CF0016C021EA3
:1038AA00D8B0022A010E066E04BE60EF1CF05EEF6D
:1038BA001CF064EF1CF0036C041ED8B0042A0350F9
:1038CA000410D8B46BEF1CF06DEF1CF091EF1CF0F4
:1038DA00010E056E75EF1CF0D89003360436052AE2
:1038EA0004AE7AEF1CF07CEF1CF071EF1CF0035071
:1038FA00015C04500258D8A085EF1CF087EF1CF039
:10390A008BEF1CF00350015E0450025AD890043227
:10391A000332052E7CEF1CF00650D8B497EF1CF04A
:10392A0099EF1CF09DEF1CF0016C021ED8B0022A20
:10393A0001C001F002C002F01200000E0114096E6B
:10394A00000E02140A6E800E03140B6E7F0E04140E
:10395A000C6E09500A100B100C10D8A4B7EF1CF00B
:10396A00B9EF1CF0C1EF1CF0000E016E000E026EE2
:10397A00000E036E000E046E000E0514096E000E92
:10398A0006140A6E800E07140B6E7F0E08140C6E56
:10399A0009500A100B100C10D8A4D6EF1CF0D8EF5F
:1039AA001CF0E0EF1CF0000E056E000E066E000E15
:1039BA00076E000E086E055001180FE10650021836
:1039CA000CE10750031809E108500418D8B4F0EFC5
:1039DA001CF0F2EF1CF0F5EF1CF0D890F6EF1CF09B
:1039EA00D88012009590839095928392F00E936EF0
:1039FA000F0E816E92820D0EC16E050EC26E950E6D
:103A0A00C06E410E0001CE6FEE0EE82EFED7CE2F0D
:103A1A00FCD700F0280E3EEC1AF0010EF7EC1EF06F
:103A2A00410E0001CE6FEE0EE82EFED7CE2FFCD748
:103A3A0000F0410E0001FB19D8A426EF1DF028EF73
:103A4A001DF02CEF1DF0ECEC14F01EEF1DF0420EF1
:103A5A00FB19D8A433EF1DF035EF1DF01EEF1DF052
:103A6A0087EC12F01EEF1DF000EF00F05BEF1DF087
:103A7A0073EC1EF00009D8A445EF1DF047EF1DF0C6
:103A8A003DEF1DF002C0F6FF03C0F7FFF86A070E0C
:103A9A00F76403D00800F55005D0F6CFE1FFF7CF61
:103AAA00E2FFE750D8EC1EF0024A032A02C0F6FFF2
:103ABA0003C0F7FFF86A070EF76403D00800F55051
:103ACA0005D0F6CFE1FFF7CFE2FFE7500009D8A40F
:103ADA0071EF1DF073EF1DF03DEF1DF01200940E13
:103AEA00F66E3F0EF76E000EF86E01EE64F010EE01
:103AFA0010F00900F5CFEEFFE550E150FAE1B40EFF
:103B0A00F66E3F0EF76E000EF86E00EEEFF010EE56
:103B1A000DF00900F5CFEEFFE550E150FAE101EEB4
:103B2A0000F0640EEE6AE806FDE100EECFF0200E2A
:103B3A00EE6AE806FDE1000EF86E0001F7EF1CF0F0
:103B4A00A7C0ABF0A8C0ACF0000E0001E26F000EF7
:103B5A00E16FC3EF1DF0A5C097F0A6C098F0AB0EB9
:103B6A00996F000E9A6FA9C09BF0AAC09CF08AECCC
:103B7A000CF000019751E1279851E223ABC0F6FF00
:103B8A00ACC0F7FF0800F5500009D8A4CFEF1DF02C
:103B9A00D1EF1DF0B0EF1DF0E1C0A5F0E2C0A6F034
:103BAA00120007C00BF008C00CF005C00DF006C0EB
:103BBA000EF00B50096E0C500A6E0B4A0C2A09C003
:103BCA00F6FF0AC0F7FFF86A0DC0D9FF0EC0DAFF88
:103BDA000D4A0E2A070EF76403D00800F55005D0E7
:103BEA00F6CFE1FFF7CFE2FFE750DF6EDF50D8A450
:103BFA0001EF1EF003EF1EF0DEEF1DF01200010EC2
:103C0A00076E200E01180210D8B40EEF1EF010EF46
:103C1A001EF029EF1EF0F70E036EFF0E046E01C0B0
:103C2A0005F002C006F0035005260450062206508D
:103C3A0009E1050E055CD8A025EF1EF027EF1EF05E
:103C4A0029EF1EF0000E076E07C001F0026A12008B
:103C5A00BF0E096EFF0E0A6E07C00BF008C00CF00B
:103C6A0009500B260A500C220C5007E11A0E0B5C65
:103C7A00D8B042EF1EF044EF1EF04BEF1EF0200EBC
:103C8A000710076E0850086E4FEF1EF007C007F0C6
:103C9A0008C008F01200000E2C1A000E2D1A000E91
:103CAA002E1A800E2F1A28C001F029C002F02AC04D
:103CBA0003F02BC004F02CC005F02DC006F02EC076
:103CCA0007F02FC008F02AEC0AF001C028F002C061
:103CDA0029F003C02AF004C02BF012008D848D90C5
:103CEA00E1EC1FF08D82E1EC1FF083AE7FEF1EF056
:103CFA0081EF1EF08CEF1EF08D92E1EC1FF08D82A9
:103D0A00E1EC1FF08D928D94010E95EF1EF08D92CD
:103D1A00E1EC1FF08D82E1EC1FF08D928D94000E84
:103D2A001200000E106E000E0F6EA7EF1EF00EC0EE
:103D3A0001F0026A0CC003F00DC004F020EC1BF085
:103D4A000F4A102A0F500A24D96E10500B20DA6E2F
:103D5A00DF500E6E0E50D8A4B5EF1EF0B7EF1EF06E
:103D6A009CEF1EF01200016E0F0E95160F0E8316B1
:103D7A0001508009F00B83128D948D90E1EC1FF0B5
:103D8A008D82E1EC1FF08D920F0E83160138F00B35
:103D9A00F00B8312E1EC1FF08D82E1EC1FF08D92A3
:103DAA00F00E95121200016E0F0E95160F0E831665
:103DBA000150F00B83128D808D94E1EC1FF08D82FF
:103DCA00E1EC1FF08D920F0E83160138F00BF00B09
:103DDA008312E1EC1FF08D82E1EC1FF08D92F00E60
:103DEA0095121200016E0F0E95160F0E83160150D2
:103DFA00F00B83128D948D90E1EC1FF08D82E1EC33
:103E0A001FF08D920F0E83160138F00BF00B831200
:103E1A00E1EC1FF08D82E1EC1FF08D92F00E95120D
:103E2A001200BF0E036EFF0E046E01C005F002C041
:103E3A0006F0035005260450062206500AE11A0E1F
:103E4A00055CD8A02BEF1FF02EEF1FF0010E2FEF0D
:103E5A001FF0000E016E026A1200015002100310D8
:103E6A000410D8B43BEF1FF03DEF1FF045EF1FF0F1
:103E7A00000E011A000E021A000E031A800E041A0E
:103E8A0001C001F002C002F003C003F004C004F054
:103E9A001200D00E036EFF0E046E01C005F002C0C0
:103EAA0006F0035005260450062206500AE10A0EBF
:103EBA00055CD8A063EF1FF066EF1FF0010E67EFF5
:103ECA001FF0000E016E026A120001C003F002C068
:103EDA0004F072EF1FF0014A022A01C0D9FF02C0A2
:103EEA00DAFFDF50D8A47CEF1FF07EEF1FF070EFEF
:103EFA001FF00350015C016E04500258026E12005A
:103F0A00C282C2B28BEF1FF08DEF1FF086EF1FF057
:103F1A00C450046E036AC3500324056E000E0420C5
:103F2A00066E05C001F006C002F012000FC001F0D3
:103F3A0010C002F06AEC1FF001500F24056E025007
:103F4A001020066E11C007F012C008F0D6EC1DF062
:103F5A00120001500302F3CF05F0F4CF06F001502E
:103F6A000402F350062602500302F350062605C047
:103F7A0001F006C002F01200210E016E760EE82E44
:103F8A00FED7012EFCD700D012003132334134352E
:103F9A003642373839432A302344620E016E660EA0
:103FAA00E82EFED7012EFCD712000000A0416400C3
:073FBA006400010004004255
:0C3FC200210EE82EFED700F012001200C5
:020000040020DA
:08000000FFFFFFFFFFFFFFFF00
:020000040030CA
:0E000000000C191EFF0080FF0FC00FE00F4024
:00000001FF
